:020000041000EA
:1000000000B5324B212058609868022188439860DF
:10001000D860186158612E4B002199600221596106
:100020000121F02299502B49196001219960352056
:1000300000F044F80222904214D00621196600F024
:1000400034F8196E01211966002018661A6600F04E
:100050002CF8196E196E196E052000F02FF8012189
:100060000842F9D1002199601B49196000215960AB
:100070001A491B48016001219960EB211966A021F2
:10008000196600F012F800219960164914480160C1
:100090000121996001BC002800D000471248134993
:1000A000086003C880F30888084703B5996A0420EC
:1000B0000142FBD001200142F8D103BD02B5186610
:1000C0001866FFF7F2FF186E186E02BD00000240BE
:1000D000000000180000070000035F00212200005C
:1000E000F4000018222000A00001001008ED00E03C
:1000F00000000000000000000000000074B24E7A12
:1001000000200420F7010010C30100100D6502104B
:10011000C1010010C1010010C1010010C101001097
:10012000C1010010C1010010C1010010C701001081
:10013000C1010010C1010010C9010010CB01001065
:10014000CD010010CD010010CD010010CD01001037
:10015000CD010010CD010010CD010010CD01001027
:10016000CD010010CD010010CD010010CD01001017
:10017000CD010010CD010010CD010010CD01001007
:10018000CD010010CD010010CD010010CD010010F7
:10019000CD010010CD010010CD010010CD010010E7
:1001A000CD010010CD010010CD010010CD010010D7
:1001B000CD010010CD010010CD010010CD010010C7
:1001C00000BE00BE00BE00BE00BE00BEEFF3058054
:1001D000103800BEF2EB88719CC00210C0C0021043
:1001E0003402001090A31AE700201F49086006C8D7
:1001F00081F3088810471D48006800282FD10DA4FE
:100200000ECC002902D000F012F8F9E71849194A7B
:10021000002000E001C19142FCD1174988471749ED
:1002200088471749884700BEFDE701C901C29A42C5
:10023000FBD37047C0C00210C00000205C2B002020
:100240005CEB021000000420000004205CEB0210B4
:10025000001004200010042000000000704709482E
:1002600018F0ACF90047000008ED00E0000000D0F5
:10027000202C002078480120316E01106D03001001
:10028000596F01105756000006005250ABB360532F
:10029000C0A4021006005250861C0302D0A4021013
:1002A000060052505422A29DE0A4021005005250B4
:1002B000DE65F4685CEB0210F8B5C0460448054BF7
:1002C00010B5834203D0044B002B00D0984710BDDB
:1002D0005C2B00205C2B0020000000000648074932
:1002E000091A8B10C90FC91810B5491003D0044B57
:1002F000002B00D0984710BD5C2B00205C2B002009
:100300000000000010B5074C2378002B09D1FFF73F
:10031000D5FF054B002B02D0044800E000BF0123AD
:10032000237010BD1834002000000000387A02103D
:10033000054B10B5002B03D00449054800E000BF71
:10034000FFF7CCFF10BDC046000000001C340020A9
:10035000387A02100922034B1A600022024B1A70ED
:100360007047C046243B002066480120F8B5DE46B1
:1003700057464E464546E0B519F06EFB0E2015F087
:1003800059F8D02480232406DB0163620F2015F086
:1003900051F880231B02A362012208210F203B4B4E
:1003A00014F0F0FF02E0642015F042FF00201AF084
:1003B00045FF0028F7D0364A3649374819F040FB48
:1003C000364A3749374819F03BFB3749374819F067
:1003D00037FB374B0122190036489B4620F0C0FA04
:1003E000354C207000284AD100F0AEF814F0E2FB42
:1003F00014F010FE314B324C984616239946314B7F
:10040000314F9A46314E324DA14408E04946200012
:1004100027F012F900280CD1504619F00FFA14F009
:100420003BFA43461B683B606B4333602378002BE9
:10043000ECD1284B284A1A8000F0A8F9594600222E
:10044000002020F08DFAD02380221B06D2015A61B1
:100450000A2019F0A7F900F0D1F900F06DFA0A208E
:1004600019F0A0F919F06CFAFA20400015F0E0FE3E
:100470000020F0BCBB46B246A946A046F8BD26F017
:1004800051F822780100154816F06AFD5503001056
:10049000387A0210687A0210707A02108C7A021090
:1004A000907A0210B47A0210C47A0210F87A02101C
:1004B000FC7A0210382D00207148012080150020A0
:1004C000943B0020187B0210CC3B002024480120E4
:1004D000102700004448012000FFFFFF007B0210AE
:1004E00010B515F093FF10BDF0B5C6464D1E0600C1
:1004F00000B5002D14DD0024FF2719F0B1FAC3B2B6
:10050000082B13D07F2B11D00D2B08D0621C9046E6
:100510003355384019F046F94446AC42EDDB361904
:1005200000230020337080BCB846F0BD002CE4D01E
:10053000082019F037F9202019F034F9082019F0B3
:1005400031F9013CE9E7C0460022564B70B51A80EC
:1005500026F0C0FF544BFF24188026F0BBFFC317C2
:100560001B0EC0182040C01A504B187026F0B2FF66
:10057000C3171B0EC0182040C01A4D4B187026F030
:10058000A9FFC3171B0EC0182040C01A494B187092
:1005900026F0A0FFC3171B0EC0182040C01A464B00
:1005A000187026F097FFC3171B0EC0182040C01A02
:1005B000424B187026F08EFFC3171B0EC018204048
:1005C000C01A3F4B187026F085FFC3171B0EC018CA
:1005D0002040C01A3B4B187026F07CFF0022C31746
:1005E0001B0EC0182040C01A374D384B28601A70B7
:1005F00026F070FFC3171B0EC0182040C01A344BE2
:10060000187026F067FFC3171B0EC0182040C01AD1
:10061000304B187026F05EFFC3171B0EC018204029
:10062000C01A2D4B187026F055FFC3171B0EC018AB
:100630002040C01A294B187026F04CFFC3171B0E20
:10064000C0182040C01A264B187026F043FFC3176D
:100650001B0EC0182040C01A224B187026F03AFF1B
:10066000C3171B0EC0182040C01A1F4B187026F06D
:1006700031FFC3171B0EC0180440E41A1B4B1C604B
:1006800026F028FF1A4B188026F024FF194B1880FB
:10069000194B1B68022B04D12822296891430B4374
:1006A0002B6070BD44480120464801204C48012081
:1006B0004E48012050480120534801205548012050
:1006C000574801205B4801206C3400205948012024
:1006D0004D4801204F480120514801205448012035
:1006E00056480120584801205C4801207034002001
:1006F00040480120424801208415002000230121A8
:100700000B4A494213600B4A13600B4A13700B4AA1
:10071000116000220A490B800A490A700A490A70CE
:100720000A490A700A4A13600A4A13607047C046B1
:10073000C4470020B84700205A48012088150020EF
:1007400044480120594801205D4801205E480120AD
:10075000BC470020C0470020094B10B51A688242F0
:1007600005D0022804D008221860064B1A7010BD6C
:10077000282205490C689443220002430A60F2E7EC
:1007800084150020664801206C340020F0B5012358
:10079000C6460022154E00B53370154B1A60FFF7A0
:1007A0009FFE012304000D009846124F3B68012B69
:1007B00014D0022B01D104F0D3FD3378082B12D0D2
:1007C000FFF78EFE0C4E32687368121BAB41121895
:1007D0004B413260736080BCB846F0BD09F03CFB11
:1007E0003378082BECD143463370DFE766480120AD
:1007F000243B002084150020282C002030B53C4CE0
:1008000083B02368002B01D103B030BD0A2018F05B
:10081000C9FF21680A2907DC002965DB0A29F3D80A
:10082000344B89005B589F46FF295DD1324819F04F
:1008300005F8E9E7314B3248198819F001F9E3E787
:10084000304B3148196819F0FBF8DDE72B4B2F4886
:100850001988013919F0F4F8D6E72D4B2D481A788C
:10086000264B198819F0ECF8CEE7294B2A481A785C
:10087000224B198819F0E4F8C6E7284818F0DEFF83
:10088000C2E71E4B2648198819F0DAF8BCE71B4B63
:10089000244A1988244801398BB2D25C19F0D0F867
:1008A000B2E7164B1F4A19884B1E023988B29BB219
:1008B000D35C125C1D4819F0C3F8A5E70F4B194C27
:1008C0001888451E011FADB2655DC31E0A049BB2A8
:1008D000120C0238E35CA25C80B20195205C0090AF
:1008E000134819F0ADF88FE7124819F0A9F88BE713
:1008F000243B0020D07C0210A87C02104448012038
:10090000607C0210881500207C7C0210347B021071
:100910006C480120687B0210907B0210B87B0210AB
:10092000C87B0210D4470020E47B0210047C021034
:100930002C7C0210BC7C021070B5164C20686168DB
:1009400003000B4300D170BDFA220023920017F080
:10095000CDFE0B000200104819F072F80F4D104840
:100960002A686B6819F06CF82868696818F044FD0B
:10097000051C2068616818F03FFD011C281C18F058
:10098000B8FC18F047FD02000B00064819F058F8B3
:10099000D9E7C046282C0020FC7C0210202C002027
:1009A000107D02102C7D0210D0B5040082B0FFF73C
:1009B00097FD0E4B0F001C700D4BA400E358060072
:1009C00098470C4C2070FFF78BFD0B4B009001916A
:1009D00019685A68761857410099019A761A974112
:1009E00020781E605F6002B0D0BDC0466C48012018
:1009F000941600206B480120282C0020F8B5170021
:100A00000600FFF76DFD00220D0004000B4B3800BF
:100A10001E700B4BB6001F700A4B1A600A4BF3583E
:100A20009847FFF75DFD094B1E685F68A4197D417B
:100A3000241A8D411C605D60F8BDC0466C480120E1
:100A40006B480120E43A0020941A0020282C002052
:100A5000054B1B68002B05D00222044B1A600022B4
:100A6000034B1A70FF207047B4470020243B00203E
:100A700066480120054B1B68002B05D00322044B60
:100A80001A600022034B1A707047C046B44700201A
:100A9000243B0020664801200023034A1370034AC8
:100AA0001360034A1370704762480120C03B002066
:100AB00063480120042070470123034A0420116881
:100AC0000B4313607047C0466C3400200121054A77
:100AD0001368194203D08B430420136070470B4303
:100AE000FAE7C0466C340020024A04201378DB4346
:100AF000137070474C480120F0B5C6460F2100B571
:100B0000234C2448227803681140092904D8102571
:100B10002E001E401D4236D006266625B046992A74
:100B200002D801271F422BD001273B4389190F29E7
:100B300023DD10210B435219D2B240212270002A2A
:100B40000DD08B4351B20360002909DA80210B4399
:100B500011498A5C002A09D10422134308E00B439F
:100B600080218B430C498A5C002AF5D004229343F0
:100B70000360042080BCB846F0BD10218B43DAE747
:100B80004546BB43D2E700276025B846C7E7C046C5
:100B90004C4801206C340020487D02100322034B96
:100BA00004201A70024B023A1A6070475A4801201A
:100BB000C44700200022024B04201A707047C04630
:100BC0005A480120044A07201388591C1180034AFF
:100BD000D25C034B1A70704744480120D447002070
:100BE0004C480120044A07201388591C1180034AED
:100BF000D25C034B1A70704744480120D447002050
:100C00004E480120044A07201388591C1180034ACA
:100C1000D25C034B1A70704744480120D44700202F
:100C200050480120044A07201388591C1180034AA8
:100C3000D25C034B1A70704744480120D44700200F
:100C400053480120044A07201388591C1180034A85
:100C5000D25C034B1A70704744480120D4470020EF
:100C600055480120044A07201388591C1180034A63
:100C7000D25C034B1A70704744480120D4470020CF
:100C800057480120044A07201388591C1180034A41
:100C9000D25C034B1A70704744480120D4470020AF
:100CA0005B480120064B07201A78064B12021B787E
:100CB0009B18054A9BB2D25C044B1A707047C04621
:100CC0004E48012050480120D44700204C480120C4
:100CD000064B07201A78064B12021B789B18054A10
:100CE0009BB2D25C044B1A707047C0465348012037
:100CF00055480120D44700204C48012010B5084831
:100D000008490388CA5C9C1C01339BB2CB5C0480FD
:100D10001B02D3189BB2CA5C034B0D201A7010BD86
:100D200044480120D44700204C480120074B1A7842
:100D3000074B12021B789B18064A9BB2934203D8BA
:100D4000054A1178054AD154072070474E480120C2
:100D500050480120FFFE00004C480120D4470020ED
:100D6000074B1A78074B12021B789B18064A9BB256
:100D7000934203D8054A1178054AD1540720704799
:100D80005348012055480120FFFE00004C48012037
:100D9000D447002010B50A480A490388CA5C9C1C45
:100DA00001339BB2CB5C04801B02D318064A9BB272
:100DB000934202D8054A1278CA540D2010BDC0468D
:100DC00044480120D4470020FFFE00004C48012089
:100DD000074B1A78074B12021B789B18064A9BB2E6
:100DE000934203D8054A1178054AD1540720704729
:100DF000574801205B480120FFFE00004C480120BD
:100E0000D4470020074B1A78074B12021B789B1817
:100E1000064A9BB2934203D8054A1178054AD15439
:100E200007207047574801205B480120FFFE000063
:100E30004E480120D4470020074B1A78074B120276
:100E40001B789B18064A9BB2934203D8054A117837
:100E5000054AD15407207047574801205B480120BC
:100E6000FFFE000050480120D4470020074B1A78AD
:100E7000074B12021B789B18064A9BB2934203D879
:100E8000054A1178054AD154072070475748012078
:100E90005B480120FFFE000053480120D44700209A
:100EA000074B1A78074B12021B789B18064A9BB215
:100EB000934203D8054A1178054AD1540720704758
:100EC000574801205B480120FFFE000055480120E3
:100ED000D4470020064B1A78064B11021B785B188A
:100EE00005499BB28B4201D80449CA540720704778
:100EF000574801205B480120FFFE0000D447002036
:100F0000064B07491A78074B1B781B029B189BB2AC
:100F10008B4201D80449CA54072070475B4801201E
:100F2000FFFE000057480120D4470020094B1A78E3
:100F3000094B12021B789B18084A9BB21188481C67
:100F40001080074A934202D8064A515CD1540A20C5
:100F50007047C046574801205B48012044480120A3
:100F6000FFFE0000D447002005207047024B0520FB
:100F70001A78024B1A7070474E4801204C480120E5
:100F8000024B05201A78024B1A7070475048012016
:100F90004C480120024B05201A78024B1A7070470A
:100FA000534801204C480120024B05201A78024B7F
:100FB0001A707047554801204C480120024B05200B
:100FC0001A78024B1A707047574801204C4801208C
:100FD000024B05201A78024B1A7070475B480120BB
:100FE0004C480120064B07201A78064B12021B784A
:100FF0009B18054A9BB2D25C044B1A707047C046DE
:10100000574801205B480120D44700204C4801206C
:10101000024B05201A78024B1A7070474C48012089
:101020004E480120024B05201A78024B1A70704777
:10103000504801204E480120024B05201A78024BEF
:101040001A707047534801204E480120024B05207A
:101050001A78024B1A707047554801204E480120FB
:10106000024B05201A78024B1A707047574801202E
:101070004E480120024B05201A78024B1A70704727
:101080005B4801204E480120064B07201A78064B8A
:1010900012021B789B18054A9BB2D25C044B1A7053
:1010A0007047C046574801205B480120D4470020C4
:1010B0004E480120024B05201A78024B1A707047E7
:1010C0004C48012050480120024B05201A78024B61
:1010D0001A7070474E48012050480120024B0520ED
:1010E0001A78024B1A70704753480120504801206B
:1010F000024B05201A78024B1A70704755480120A0
:1011000050480120024B05201A78024B1A70704794
:101110005748012050480120024B05201A78024B05
:101120001A7070475B48012050480120064B072089
:101130001A78064B12021B789B18054A9BB2D25CA8
:10114000044B1A707047C046574801205B48012085
:10115000D447002050480120024B05201A78024B4A
:101160001A7070474C48012053480120024B05205B
:101170001A78024B1A7070474E48012053480120DC
:10118000024B05201A78024B1A7070475048012014
:1011900053480120024B05201A78024B1A70704701
:1011A0005548012053480120024B05201A78024B74
:1011B0001A7070475748012053480120024B052000
:1011C0001A78024B1A7070475B480120534801207F
:1011D000064B07201A78064B12021B789B18054A0B
:1011E0009BB2D25C044B1A707047C046574801202E
:1011F0005B480120D447002053480120024B0520C2
:101200001A78024B1A7070474C480120554801204B
:10121000024B05201A78024B1A7070474E48012085
:1012200055480120024B05201A78024B1A7070476E
:101230005048012055480120024B05201A78024BE6
:101240001A7070475348012055480120024B052071
:101250001A78024B1A7070475748012055480120F0
:10126000024B05201A78024B1A7070475B48012028
:1012700055480120064B07201A78064B12021B78AE
:101280009B18054A9BB2D25C044B1A707047C0464B
:10129000574801205B480120D447002055480120D1
:1012A000024B05201A78024B1A7070474C480120F7
:1012B00057480120024B05201A78024B1A707047DC
:1012C0004E48012057480120024B05201A78024B56
:1012D0001A7070475048012057480120024B0520E2
:1012E0001A78024B1A707047534801205748012062
:1012F000024B05201A78024B1A707047554801209E
:1013000057480120024B05201A78024B1A7070478B
:101310005B480120574801200549064B0A781B7895
:1013200012029B18044A9BB2D35C07200B707047D3
:10133000574801205B480120D4470020024B05207C
:101340001A78024B1A7070474C4801205B48012004
:10135000024B05201A78024B1A7070474E48012044
:101360005B480120024B05201A78024B1A70704727
:10137000504801205B480120024B05201A78024B9F
:101380001A707047534801205B480120024B05202A
:101390001A78024B1A707047554801205B480120AB
:1013A000024B05201A78024B1A70704757480120EB
:1013B0005B480120054B06491A780B7812029B18EE
:1013C000044A9BB2D35C07200B707047574801203A
:1013D0005B480120D447002010B50749074A0B8815
:1013E0000748D45C0470981C01339BB2D25C054B57
:1013F00008801A700A2010BD44480120D4470020FC
:10140000504801204E48012010B50749074A0B8873
:101410000748D45C0470981C01339BB2D25C054B26
:1014200008801A700A2010BD44480120D4470020CB
:10143000554801205348012010B50749074A0B8839
:101440000748D45C0470981C01339BB2D25C054BF6
:1014500008801A700A2010BD44480120D44700209B
:101460005B4801205748012010B507480749038809
:10147000CA5C9C1C01339BB2CB5C04801B02D3185A
:10148000034A0A20138010BD44480120D44700209D
:1014900046480120044B05201A78044B12021B78A1
:1014A0009B18034A13807047574801205B4801206E
:1014B0004648012010B50B480B4902888B5C941CF0
:1014C000013292B28A5C048012029B189BB2C85C03
:1014D000064A01339BB21070CA5C054B10201A708B
:1014E00010BDC04644480120D44700205B4801207D
:1014F0005748012010B50E480E4902888B5C941C99
:10150000013292B28A5C048012029B180A4A9BB292
:10151000934202D8094A1278CA540133064A9BB250
:10152000934202D8064A1278CA54102010BDC04611
:1015300044480120D4470020FFFE00005B48012002
:1015400057480120024A0520138801331380704751
:1015500046480120024A05201388013B138070474A
:101560004648012030B51049104B0A781B78D21834
:101570000123FF2A00DC00230A700D480D49027880
:101580000978DBB25218D1180B4CFF2907DD012175
:10159000256829439B18037021600A2030BD012172
:1015A00025688D432900F5E75B480120504801205C
:1015B000574801204E4801206C34002030B51049B6
:1015C000104B0A781B78D2180123FF2A00DC002375
:1015D0000A700D480D4902780978DBB25218D1180B
:1015E0000B4CFF2907DD0121256829439B18037057
:1015F00021600A2030BD012125688D432900F5E7CF
:101600005B480120554801205748012053480120DC
:101610006C34002030B50E4901230A785200FF2AAD
:1016200000DC00230B480A700278DBB25200D118AC
:10163000094CFF2907DD0121256829439B18037008
:1016400021600A2030BD012125688D432900F5E77E
:101650005B480120574801206C34002070B5114BC5
:10166000114C1D8820781B782A0AC0181500012308
:10167000FF2800DC002320700C48DBB201780C4C02
:101680008A18D218FF2A08DD012226683243491938
:101690005B18037022600A2070BD01222668964301
:1016A0003200F4E7464801205B48012057480120FA
:1016B0006C34002030B51A4B1A491A78130711D52B
:1016C00008681024030055B22343002D20DA80203F
:1016D0000343402083431448825C002A11D1042232
:1016E000134310E050B20B68002816DB90208343B0
:1016F0000B60002AEDD1402003430B48825C002A96
:10170000EDD0042293430122934304200B6030BDAB
:101710008023984303002343DBE710208343D6E76D
:101720004C4801206C340020487D021030B51B4825
:101730001B4B04781A78230013431A491B0719D549
:10174000102322400D68027050B22B4300281ADB90
:10175000802083430B60002A17D1402003431248A6
:10176000825C002A17D00422934301229343042071
:101770000B6030BD10230D6822409D43027050B2B3
:101780002B000028E4DA80200343402083430648EE
:10179000825C002AE7D104221343E6E74C4801208B
:1017A0004E4801206C340020487D021030B51B48A3
:1017B0001B4B04781A78230013431A491B0719D5C9
:1017C000102322400D68027050B22B4300281ADB10
:1017D000802083430B60002A17D140200343124826
:1017E000825C002A17D004229343012293430420F1
:1017F0000B6030BD10230D6822409D43027050B233
:101800002B000028E4DA802003434020834306486D
:10181000825C002AE7D104221343E6E74C4801200A
:10182000504801206C340020487D021030B51B4820
:101830001B4B04781A78230013431A491B0719D548
:10184000102322400D68027050B22B4300281ADB8F
:10185000802083430B60002A17D1402003431248A5
:10186000825C002A17D00422934301229343042070
:101870000B6030BD10230D6822409D43027050B2B2
:101880002B000028E4DA80200343402083430648ED
:10189000825C002AE7D104221343E6E74C4801208A
:1018A000534801206C340020487D021030B51B489D
:1018B0001B4B04781A78230013431A491B0719D5C8
:1018C000102322400D68027050B22B4300281ADB0F
:1018D000802083430B60002A17D140200343124825
:1018E000825C002A17D004229343012293430420F0
:1018F0000B6030BD10230D6822409D43027050B232
:101900002B000028E4DA802003434020834306486C
:10191000825C002AE7D104221343E6E74C48012009
:10192000554801206C340020487D021030B51B481A
:101930001B4B04781A78230013431A491B0719D547
:10194000102322400D68027050B22B4300281ADB8E
:10195000802083430B60002A17D1402003431248A4
:10196000825C002A17D0042293430122934304206F
:101970000B6030BD10230D6822409D43027050B2B1
:101980002B000028E4DA80200343402083430648EC
:10199000825C002AE7D104221343E6E74C48012089
:1019A000574801206C340020487D021030B51B4898
:1019B0001B4B04781A78230013431A491B0719D5C7
:1019C000102322400D68027050B22B4300281ADB0E
:1019D000802083430B60002A17D140200343124824
:1019E000825C002A17D004229343012293430420EF
:1019F0000B6030BD10230D6822409D43027050B231
:101A00002B000028E4DA802003434020834306486B
:101A1000825C002AE7D104221343E6E74C48012008
:101A20005B4801206C340020487D021030B51F4B0C
:101A30001F481A781F4B12021B7804789B181E4A05
:101A40009BB2D25C230013431C491B0719D51023FA
:101A500022400D68027050B22B4300281ADB802010
:101A600083430B60002A17D1402003431448825C53
:101A7000002A17D0042293430122934307200B60CE
:101A800030BD10230D6822409D43027050B22B00E0
:101A90000028E4DA80200343402083430848825C26
:101AA000002AE7D104221343E6E7C0465748012045
:101AB0004C4801205B480120D44700206C340020B2
:101AC000487D021030B51D4A1D4813880478591C02
:101AD00011801C4A1C49D25C230013431B0719D5F3
:101AE000102322400D68027050B22B4300281ADBED
:101AF000802083430B60002A17D140200343134802
:101B0000825C002A17D004229343012293430720CA
:101B10000B6030BD10230D6822409D43027050B20F
:101B20002B000028E4DA8020034340208343074849
:101B3000825C002AE7D104221343E6E744480120EF
:101B40004C480120D44700206C340020487D02100E
:101B5000134B144A19781B785BB2002B13DB8023DC
:101B6000106898430300106000290FD14020034300
:101B70000D48415C00290FD004218B4311218B4378
:101B80000420136070478023106803434020834380
:101B90000548415C0029EFD104210B43EEE7C04624
:101BA0004C4801206C340020487D0210144B15492C
:101BB0001A7809780A431A7053B21349002B13DBC1
:101BC00080230868984303000860002A0FD1402052
:101BD00003430E48825C002A0FD004229343112253
:101BE000934304200B607047802308680343402020
:101BF00083430648825C002AEFD104221343EEE7B8
:101C00004C4801204E4801206C340020487D0210D1
:101C1000144B15491A7809780A431A7053B21349BC
:101C2000002B13DB80230868984303000860002A18
:101C30000FD1402003430E48825C002A0FD00422BB
:101C400093431122934304200B607047802308685C
:101C50000343402083430648825C002AEFD10422DC
:101C60001343EEE74C480120504801206C3400201B
:101C7000487D0210144B15491A7809780A431A70E6
:101C800053B21349002B13DB8023086898430300E9
:101C90000860002A0FD1402003430E48825C002ACE
:101CA0000FD0042293431122934304200B6070470A
:101CB000802308680343402083430648825C002A4F
:101CC000EFD104221343EEE74C4801205348012092
:101CD0006C340020487D0210144B15491A7809789D
:101CE0000A431A7053B21349002B13DB8023086890
:101CF000984303000860002A0FD1402003430E4898
:101D0000825C002A0FD004229343112293430420C3
:101D10000B607047802308680343402083430648D4
:101D2000825C002AEFD104221343EEE74C480120E5
:101D3000554801206C340020487D0210144B154991
:101D40001A7809780A431A7053B21349002B13DB2F
:101D500080230868984303000860002A0FD14020C0
:101D600003430E48825C002A0FD0042293431122C1
:101D7000934304200B60704780230868034340208E
:101D800083430648825C002AEFD104221343EEE726
:101D90004C480120574801206C340020487D021037
:101DA000144B15491A7809780A431A7053B213492B
:101DB000002B13DB80230868984303000860002A87
:101DC0000FD1402003430E48825C002A0FD004222A
:101DD00093431122934304200B60704780230868CB
:101DE0000343402083430648825C002AEFD104224B
:101DF0001343EEE74C4801205B4801206C3400207F
:101E0000487D0210184B19491A78194B12021B7899
:101E10009B18184A9BB2D25C0B781A4353B20A70D3
:101E20001549002B13DB80230868984303000860E2
:101E3000002A0FD1402003431048825C002A0FD0B3
:101E4000042293431122934307200B6070478023A1
:101E500008680343402083430848825C002AEFD18E
:101E600004221343EEE7C046574801204C480120A6
:101E70005B480120D44700206C340020487D0210CC
:101E8000164B174819884A1C1A80164B415C1A7861
:101E90000A431A7053B21449002B13DB80230868DD
:101EA000984303000860002A0FD1402003430F48E5
:101EB000825C002A0FD0042293431122934307200F
:101EC0000B60704780230868034340208343074822
:101ED000825C002AEFD104221343EEE7444801203C
:101EE000D44700204C4801206C340020487D02106B
:101EF0000022064B04201A709123054A1168994369
:101F00000B0044210B4313607047C0464C4801202E
:101F10006C34002030B5154B154A1C78107822001F
:101F200042401A7053B21349002B1BDB80230D680B
:101F30009D432B0084420CD0402083430E48825C9A
:101F4000002A0CD0042293431122934304200B60F7
:101F500030BD402003430848825C002AF2D10422AD
:101F60001343F1E780230D682B43E3E74C4801203E
:101F70004E4801206C340020487D021030B5154BCE
:101F8000154A1C781078220042401A7053B2134947
:101F9000002B1BDB80230D689D432B0084420CD05B
:101FA000402083430E48825C002A0CD004229343D5
:101FB0001122934304200B6030BD402003430848A6
:101FC000825C002AF2D104221343F1E780230D68DA
:101FD0002B43E3E74C480120504801206C3400209B
:101FE000487D021030B5154B154A1C781078220038
:101FF00042401A7053B21349002B1BDB80230D683B
:102000009D432B0084420CD0402083430E48825CC9
:10201000002A0CD0042293431122934304200B6026
:1020200030BD402003430848825C002AF2D10422DC
:102030001343F1E780230D682B43E3E74C4801206D
:10204000534801206C340020487D021030B5154BF8
:10205000154A1C781078220042401A7053B2134976
:10206000002B1BDB80230D689D432B0084420CD08A
:10207000402083430E48825C002A0CD00422934304
:102080001122934304200B6030BD402003430848D5
:10209000825C002AF2D104221343F1E780230D6809
:1020A0002B43E3E74C480120554801206C340020C5
:1020B000487D021030B5154B154A1C781078220067
:1020C00042401A7053B21349002B1BDB80230D686A
:1020D0009D432B0084420CD0402083430E48825CF9
:1020E000002A0CD0042293431122934304200B6056
:1020F00030BD402003430848825C002AF2D104220C
:102100001343F1E780230D682B43E3E74C4801209C
:10211000574801206C340020487D021030B5154B23
:10212000154A1C781078220042401A7053B21349A5
:10213000002B1BDB80230D689D432B0084420CD0B9
:10214000402083430E48825C002A0CD00422934333
:102150001122934304200B6030BD40200343084804
:10216000825C002AF2D104221343F1E780230D6838
:102170002B43E3E74C4801205B4801206C340020EE
:10218000487D021030B5194B19491A78194B1202C3
:102190001B789B18184A9BB2D05C184B1C78220005
:1021A00042401A7053B2002B1BDB80230D689D4305
:1021B0002B0084420CD0402083431148825C002ACB
:1021C0000CD0042293431122934307200B6030BDAF
:1021D000402003430A48825C002AF2D104221343C0
:1021E000F1E780230D682B43E3E7C0465748012001
:1021F0006C3400205B480120D44700204C4801206B
:10220000487D0210174A30B51388591C1180164AB0
:102210001649D05C164B1C78220042401A7053B20B
:10222000002B1BDB80230D689D432B0084420CD0C8
:10223000402083430F48825C002A0CD00422934341
:102240001122934307200B6030BD4020034309480F
:10225000825C002AF2D104221343F1E780230D6847
:102260002B43E3E744480120D44700206C3400208E
:102270004C480120487D02100F2310B51E481F490D
:10228000027813405B000F2B1CDD10230C685200FA
:1022900023430124FF2A1DDDD2B2027018482343D4
:1022A000805C00281DD00420834350B200281DDB31
:1022B000802083430B60002A1AD14022134304205C
:1022C0000B6010BD10230C6852009C4323000124B6
:1022D000FF2AE1DCD2B202700948A343805C0028E7
:1022E000E1D10420034350B20028E1DA80221343F5
:1022F00040229343E3E7C0464C4801206C34002061
:10230000487D021030B5214B21481C780F2319005D
:10231000027823401140CB181E490F2B1CDD1023DF
:102320000D6812192B430124FF2A1DDDD2B2027061
:1023300019482343805C00281DD00420834350B2F9
:1023400000281DDB802083430B60002A1AD1402225
:10235000134304200B6030BD10230D6812199D43F8
:102360002B000124FF2AE1DCD2B202700A48A34309
:10237000805C0028E1D10420034350B20028E1DA58
:102380008022134340229343E3E7C0464E48012096
:102390004C4801206C340020487D021030B5214BA0
:1023A00021481C780F231900027823401140CB18D4
:1023B0001E490F2B1CDD10230D6812192B4301241D
:1023C000FF2A1DDDD2B2027019482343805C002829
:1023D0001DD00420834350B200281DDB802083439E
:1023E0000B60002A1AD14022134304200B6030BD39
:1023F00010230D6812199D432B000124FF2AE1DCF4
:10240000D2B202700A48A343805C0028E1D10420C4
:10241000034350B20028E1DA802213434022934361
:10242000E3E7C046504801204C4801206C340020AE
:10243000487D021030B5214B21481C780F2319002C
:10244000027823401140CB181E490F2B1CDD1023AE
:102450000D6812192B430124FF2A1DDDD2B2027030
:1024600019482343805C00281DD00420834350B2C8
:1024700000281DDB802083430B60002A1AD14022F4
:10248000134304200B6030BD10230D6812199D43C7
:102490002B000124FF2AE1DCD2B202700A48A343D8
:1024A000805C0028E1D10420034350B20028E1DA27
:1024B0008022134340229343E3E7C0465348012060
:1024C0004C4801206C340020487D021030B5214B6F
:1024D00021481C780F231900027823401140CB18A3
:1024E0001E490F2B1CDD10230D6812192B430124EC
:1024F000FF2A1DDDD2B2027019482343805C0028F8
:102500001DD00420834350B200281DDB802083436C
:102510000B60002A1AD14022134304200B6030BD07
:1025200010230D6812199D432B000124FF2AE1DCC2
:10253000D2B202700A48A343805C0028E1D1042093
:10254000034350B20028E1DA802213434022934330
:10255000E3E7C046554801204C4801206C34002078
:10256000487D021030B5214B21481C780F231900FB
:10257000027823401140CB181E490F2B1CDD10237D
:102580000D6812192B430124FF2A1DDDD2B20270FF
:1025900019482343805C00281DD00420834350B297
:1025A00000281DDB802083430B60002A1AD14022C3
:1025B000134304200B6030BD10230D6812199D4396
:1025C0002B000124FF2AE1DCD2B202700A48A343A7
:1025D000805C0028E1D10420034350B20028E1DAF6
:1025E0008022134340229343E3E7C046574801202B
:1025F0004C4801206C340020487D021030B5214B3E
:1026000021481C780F231900027823401140CB1871
:102610001E490F2B1CDD10230D6812192B430124BA
:10262000FF2A1DDDD2B2027019482343805C0028C6
:102630001DD00420834350B200281DDB802083433B
:102640000B60002A1AD14022134304200B6030BDD6
:1026500010230D6812199D432B000124FF2AE1DC91
:10266000D2B202700A48A343805C0028E1D1042062
:10267000034350B20028E1DA8022134340229343FF
:10268000E3E7C0465B4801204C4801206C34002041
:10269000487D021030B5244B24481A78244B12028E
:1026A0001B789B18234A9BB2D45C0F231900027835
:1026B00023401140CB1820490F2B1CDD10230D683F
:1026C00012192B430124FF2A1DDDD2B202701B48D0
:1026D0002343805C00281DD00420834350B200288F
:1026E0001DDB802083430B60002A1AD14022134354
:1026F00007200B6030BD10230D6812199D432B007D
:102700000124FF2AE1DCD2B202700C48A343805CB2
:102710000028E1D10420034350B20028E1DA8022EE
:10272000134340229343E3E7574801204C480120DC
:102730005B480120D44700206C340020487D021003
:10274000234A30B513882348591C1180224AD45C8F
:102750000F231900027823401140CB181F490F2B7B
:102760001CDD10230D6812192B430124FF2A1DDDE7
:10277000D2B202701A482343805C00281DD0042086
:10278000834350B200281DDB802083430B60002A66
:102790001AD14022134307200B6030BD10230D686F
:1027A00012199D432B000124FF2AE1DCD2B20270F2
:1027B0000B48A343805C0028E1D10420034350B2BE
:1027C0000028E1DA8022134340229343E3E7C04626
:1027D000444801204C480120D44700206C3400209C
:1027E000487D02100F2070B501261F4D1F4C29781F
:1027F000236808401E404000801910220F281BDD6E
:1028000013434A009119FF291BDD012192190B4343
:102810001749D2B2895C2A7000291BD004218B434E
:1028200051B200291BDB80218B43002A19D14022A1
:1028300013430420236070BD93434A009119FF297C
:10284000E3DC012192198B430949D2B2895C2A70D9
:102850000029E3D104210B4351B20029E3DA80229D
:10286000134340229343E4E74C4801206C3400209A
:10287000487D0210F0B50F2622480121077830006C
:10288000214D224C2A78236810403E40194080197F
:1028900040180F281CDD1020D21903435018FF28C0
:1028A0001CDD012052181A49D2B2895C03432A70F8
:1028B00000291CD004218B4351B200291CDB80214C
:1028C0008B43002A1AD14022134304202360F0BD19
:1028D0001020D21983435018FF28E2DC012052183F
:1028E0000B49D2B2895C83432A700029E2D10421CA
:1028F0000B4351B20029E2DA802213434022934372
:10290000E3E7C0464E4801204C4801206C340020CB
:10291000487D0210F0B50F262248012107783000CB
:10292000214D224C2A78236810403E4019408019DE
:1029300040180F281CDD1020D21903435018FF281F
:102940001CDD012052181A49D2B2895C03432A7057
:1029500000291CD004218B4351B200291CDB8021AB
:102960008B43002A1AD14022134304202360F0BD78
:102970001020D21983435018FF28E2DC012052189E
:102980000B49D2B2895C83432A700029E2D1042129
:102990000B4351B20029E2DA8022134340229343D1
:1029A000E3E7C046504801204C4801206C34002029
:1029B000487D0210F0B50F2622480121077830002B
:1029C000214D224C2A78236810403E40194080193E
:1029D00040180F281CDD1020D21903435018FF287F
:1029E0001CDD012052181A49D2B2895C03432A70B7
:1029F00000291CD004218B4351B200291CDB80210B
:102A00008B43002A1AD14022134304202360F0BDD7
:102A10001020D21983435018FF28E2DC01205218FD
:102A20000B49D2B2895C83432A700029E2D1042188
:102A30000B4351B20029E2DA802213434022934330
:102A4000E3E7C046534801204C4801206C34002085
:102A5000487D0210F0B50F2622480121077830008A
:102A6000214D224C2A78236810403E40194080199D
:102A700040180F281CDD1020D21903435018FF28DE
:102A80001CDD012052181A49D2B2895C03432A7016
:102A900000291CD004218B4351B200291CDB80216A
:102AA0008B43002A1AD14022134304202360F0BD37
:102AB0001020D21983435018FF28E2DC012052185D
:102AC0000B49D2B2895C83432A700029E2D10421E8
:102AD0000B4351B20029E2DA802213434022934390
:102AE000E3E7C046554801204C4801206C340020E3
:102AF000487D0210F0B50F262248012107783000EA
:102B0000214D224C2A78236810403E4019408019FC
:102B100040180F281CDD1020D21903435018FF283D
:102B20001CDD012052181A49D2B2895C03432A7075
:102B300000291CD004218B4351B200291CDB8021C9
:102B40008B43002A1AD14022134304202360F0BD96
:102B50001020D21983435018FF28E2DC01205218BC
:102B60000B49D2B2895C83432A700029E2D1042147
:102B70000B4351B20029E2DA8022134340229343EF
:102B8000E3E7C046574801204C4801206C34002040
:102B9000487D0210F0B50F26224801210778300049
:102BA000214D224C2A78236810403E40194080195C
:102BB00040180F281CDD1020D21903435018FF289D
:102BC0001CDD012052181A49D2B2895C03432A70D5
:102BD00000291CD004218B4351B200291CDB802129
:102BE0008B43002A1AD14022134304202360F0BDF6
:102BF0001020D21983435018FF28E2DC012052181C
:102C00000B49D2B2895C83432A700029E2D10421A6
:102C10000B4351B20029E2DA80221343402293434E
:102C2000E3E7C0465B4801204C4801206C3400209B
:102C3000487D0210F0B50F273D000120254B264EA0
:102C40001A78264B12021B78254C9B18254A9BB2FA
:102C5000D25C317823680D4017401840ED192D18CB
:102C60000F2D1DDD10252B438D182D18FF2D1DDD7B
:102C70000125091852181C49D2B2895C2B433270C5
:102C800000291DD004218B4351B200291DDB802176
:102C90008B43002A1BD14022134307202360F0BD41
:102CA0001025AB438D182D18FF2DE1DC01250918E7
:102CB00052180D49D2B2895CAB4332700029E1D180
:102CC00004210B4351B20029E1DA80221343402250
:102CD0009343E2E7574801204C4801205B4801201C
:102CE0006C340020D4470020487D0210F0B50F2737
:102CF000254901200A88254E551C0D803D00244998
:102D0000244C895C3278236815400F401840ED1937
:102D10002D180F2D1DDD10252B4355182D18FF2DB7
:102D20001DDD0125091852181B49D2B2895C2B43BD
:102D3000327000291DD004218B4351B200291DDBC4
:102D400080218B43002A1BD140221343072023609C
:102D5000F0BD1025AB4355182D18FF2DE1DC0125E2
:102D6000091852180C49D2B2895CAB433270002961
:102D7000E1D104210B4351B20029E1DA802213434F
:102D800040229343E2E7C046444801204C480120DA
:102D9000D44700206C340020487D02100022064BEE
:102DA00004201A708123054A116899430B005421AD
:102DB0000B4313607047C0464C4801206C34002020
:102DC00030B5214B214C19780F2318002278084088
:102DD000134098421ED910231D4805689D432B00BF
:102DE000012591421DD9521A1A49D2B2895C2B434E
:102DF000227000291DD004218B4351B200291DDB14
:102E000080218B430360002A1AD1402213430360C0
:102E1000042030BD10230E4805682B430125914244
:102E2000E1D8521A0B49D2B2895CAB432270002917
:102E3000E1D104210B4351B20029E1DA802213438E
:102E400040229343E3E7C0464E4801204C4801200E
:102E50006C340020487D021030B5214B214C19788C
:102E60000F23180022780840134098421ED91023DF
:102E70001D4805689D432B00012591421DD9521A1A
:102E80001A49D2B2895C2B43227000291DD004213B
:102E90008B4351B200291DDB80218B430360002A44
:102EA0001AD1402213430360042030BD10230E4882
:102EB00005682B4301259142E1D8521A0B49D2B241
:102EC000895CAB4322700029E1D104210B4351B24C
:102ED0000029E1DA8022134340229343E3E7C0460E
:102EE000504801204C4801206C340020487D0210DD
:102EF00030B5214B214C19780F2318002278084057
:102F0000134098421ED910231D4805689D432B008D
:102F1000012591421DD9521A1A49D2B2895C2B431C
:102F2000227000291DD004218B4351B200291DDBE2
:102F300080218B430360002A1AD14022134303608F
:102F4000042030BD10230E4805682B430125914213
:102F5000E1D8521A0B49D2B2895CAB4322700029E6
:102F6000E1D104210B4351B20029E1DA802213435D
:102F700040229343E3E7C046534801204C480120D8
:102F80006C340020487D021030B5214B214C19785B
:102F90000F23180022780840134098421ED91023AE
:102FA0001D4805689D432B00012591421DD9521AE9
:102FB0001A49D2B2895C2B43227000291DD004210A
:102FC0008B4351B200291DDB80218B430360002A13
:102FD0001AD1402213430360042030BD10230E4851
:102FE00005682B4301259142E1D8521A0B49D2B210
:102FF000895CAB4322700029E1D104210B4351B21B
:103000000029E1DA8022134340229343E3E7C046DC
:10301000554801204C4801206C340020487D0210A6
:1030200030B5214B214C19780F2318002278084025
:10303000134098421ED910231D4805689D432B005C
:10304000012591421DD9521A1A49D2B2895C2B43EB
:10305000227000291DD004218B4351B200291DDBB1
:1030600080218B430360002A1AD14022134303605E
:10307000042030BD10230E4805682B4301259142E2
:10308000E1D8521A0B49D2B2895CAB4322700029B5
:10309000E1D104210B4351B20029E1DA802213432C
:1030A00040229343E3E7C046574801204C480120A3
:1030B0006C340020487D021030B5214B214C19782A
:1030C0000F23180022780840134098421ED910237D
:1030D0001D4805689D432B00012591421DD9521AB8
:1030E0001A49D2B2895C2B43227000291DD00421D9
:1030F0008B4351B200291DDB80218B430360002AE2
:103100001AD1402213430360042030BD10230E481F
:1031100005682B4301259142E1D8521A0B49D2B2DE
:10312000895CAB4322700029E1D104210B4351B2E9
:103130000029E1DA8022134340229343E3E7C046AB
:103140005B4801204C4801206C340020487D02106F
:1031500030B5244B244C1A78244B12021B789B1850
:10316000234A9BB2D15C0F23180022780B401040F9
:1031700098421ED210231F4805689D432B0001254D
:103180008A421DD2521A1C49D2B2895C2B4322704A
:1031900000291DD004218B4351B200291DDB802161
:1031A0008B430360002A1AD1402213430360072097
:1031B00030BD10230F4805682B4301258A42E1D317
:1031C000521A0D49D2B2895CAB4322700029E1D179
:1031D00004210B4351B20029E1DA8022134340223B
:1031E0009343E3E7574801204C4801205B48012006
:1031F000D44700206C340020487D0210234A30B5AB
:103200001388234C591C1180224AD15C0F231800CB
:1032100022780840134098421ED910231E480568A2
:103220009D432B0001258A421DD2521A1B49D2B25E
:10323000895C2B43227000291DD004218B4351B29D
:1032400000291DDB80218B430360002A1AD1402214
:1032500013430360072030BD10230F4805682B433C
:1032600001258A42E1D3521A0C49D2B2895CAB43A0
:1032700022700029E1D104210B4351B20029E1DA87
:103280008022134340229343E3E7C0464448012091
:103290004C480120D44700206C340020487D0210A7
:1032A000094A1368D90709D550218B4335310B439F
:1032B0007A311360054B04201970704781218B43CC
:1032C0002D390B430021F4E76C3400204C480120D9
:1032D000F0B50F2401202700204D214A2B681278D9
:1032E000204E1840317817403F180C40A7421CDD93
:1032F0001024A3431418A1421CDA01248A1A121ABA
:103300001949D2B2895C2343327000291CD00421B0
:103310008B4351B200291CDB80218B43002A1AD138
:103320004022134304202B60F0BD102423431418C3
:10333000A142E2DB01248A1A121A0B49D2B2895C3B
:10334000A34332700029E2D104210B4351B200297A
:10335000E2DA8022134340229343E3E76C340020F7
:103360004E4801204C480120487D0210F0B50F2442
:1033700001202700204D214A2B681278204E18404A
:10338000317817403F180C40A7421CDD1024A3439E
:103390001418A1421CDA01248A1A121A1949D2B24D
:1033A000895C2343327000291CD004218B4351B225
:1033B00000291CDB80218B43002A1AD140221343B1
:1033C00004202B60F0BD102423431418A142E2DB3B
:1033D00001248A1A121A0B49D2B2895CA3433270B3
:1033E0000029E2D104210B4351B20029E2DA802204
:1033F000134340229343E3E76C34002050480120FC
:103400004C480120487D0210F0B50F240120270010
:10341000204D214A2B681278204E184031781740F1
:103420003F180C40A7421CDD1024A3431418A142EE
:103430001CDA01248A1A121A1949D2B2895C234370
:10344000327000291CD004218B4351B200291CDBAF
:1034500080218B43002A1AD14022134304202B6081
:10346000F0BD102423431418A142E2DB01248A1A80
:10347000121A0B49D2B2895CA34332700029E2D1FF
:1034800004210B4351B20029E2DA80221343402287
:103490009343E3E76C340020534801204C4801205B
:1034A000487D0210F0B50F2401202700204D214A4D
:1034B0002B681278204E1840317817403F180C4086
:1034C000A7421CDD1024A3431418A1421CDA0124D6
:1034D0008A1A121A1949D2B2895C23433270002920
:1034E0001CD004218B4351B200291CDB80218B436B
:1034F000002A1AD14022134304202B60F0BD10246F
:1035000023431418A142E2DB01248A1A121A0B4940
:10351000D2B2895CA34332700029E2D104210B436B
:1035200051B20029E2DA8022134340229343E3E7B9
:103530006C340020554801204C480120487D021081
:10354000F0B50F2401202700204D214A2B68127866
:10355000204E1840317817403F180C40A7421CDD20
:103560001024A3431418A1421CDA01248A1A121A47
:103570001949D2B2895C2343327000291CD004213E
:103580008B4351B200291CDB80218B43002A1AD1C6
:103590004022134304202B60F0BD10242343141851
:1035A000A142E2DB01248A1A121A0B49D2B2895CC9
:1035B000A34332700029E2D104210B4351B2002908
:1035C000E2DA8022134340229343E3E76C34002085
:1035D000574801204C480120487D0210F0B50F24C7
:1035E00001202700204D214A2B681278204E1840D8
:1035F000317817403F180C40A7421CDD1024A3432C
:103600001418A1421CDA01248A1A121A1949D2B2DA
:10361000895C2343327000291CD004218B4351B2B2
:1036200000291CDB80218B43002A1AD1402213433E
:1036300004202B60F0BD102423431418A142E2DBC8
:1036400001248A1A121A0B49D2B2895CA343327040
:103650000029E2D104210B4351B20029E2DA802291
:10366000134340229343E3E76C3400205B4801207E
:103670004C480120487D02100F20F0B5254B070073
:103680001A78254B12021B78244C9B18244A9BB2B3
:10369000D55C01222368234E1A4031782F40BF1891
:1036A000084087421CDD10208343A81881421CDAA1
:1036B00001208A1A521B1C49D2B2895C0343327022
:1036C00000291CD004218B4351B200291CDB80212E
:1036D0008B43002A1AD14022134307202360F0BDF8
:1036E00010200343A8188142E2DB01208A1A521BF2
:1036F0000D49D2B2895C834332700029E2D10421A2
:103700000B4351B20029E2DA802213434022934353
:10371000E3E7C046574801205B4801206C34002095
:10372000D44700204C480120487D0210F0B50F25F9
:1037300001202F00214A224C1388224E591C11804F
:10374000214A3178D25C2368174018403F180D4059
:10375000AF421BDD10251218AB43012091421BDA4A
:103760008A1A1A49D2B2895C0343327000291BD0ED
:1037700004218B4351B200291BDB80218B43002A9B
:1037800019D14022134307202360F0BD10251218E1
:103790002B4301209142E3DB8A1A0C49D2B2895CA7
:1037A000834332700029E3D104210B4351B2002935
:1037B000E3DA8022134340229343E4E744480120A4
:1037C0006C3400204C480120D4470020487D021072
:1037D0008123044A0420116899430B0054210B43B0
:1037E000136070476C34002010B5204B1978204BC3
:1037F0001A780F2318001340084098421DD910234F
:103800001C4804689C432300012491421CD9521A8D
:103810001949D2B2895C234300291CD004218B436F
:1038200051B200291CDB80218B430360002A19D18F
:10383000402213430360042010BD10230D48046888
:10384000234301249142E2D8521A0B49D2B2895C37
:10385000A3430029E2D104210B4351B20029E2DA4B
:103860008022134340229343E4E7C0464E480120A0
:103870004C4801206C340020487D021010B5204BCC
:103880001978204B1A780F231800134008409842EB
:103890001DD910231C4804689C4323000124914235
:1038A0001CD9521A1949D2B2895C234300291CD071
:1038B00004218B4351B200291CDB80218B43036020
:1038C000002A19D1402213430360042010BD1023A5
:1038D0000D480468234301249142E2D8521A0B494F
:1038E000D2B2895CA3430029E2D104210B4351B237
:1038F0000029E2DA8022134340229343E4E7C046E2
:10390000504801204C4801206C340020487D0210B2
:1039100010B5204B1978204B1A780F23180013404C
:10392000084098421DD910231C4804689C4323007A
:10393000012491421CD9521A1949D2B2895C2343FD
:1039400000291CD004218B4351B200291CDB8021AB
:103950008B430360002A19D14022134303600420E3
:1039600010BD10230D480468234301249142E2D87E
:10397000521A0B49D2B2895CA3430029E2D1042137
:103980000B4351B20029E2DA8022134340229343D1
:10399000E4E7C046534801204C4801206C34002025
:1039A000487D021010B5204B1978204B1A780F2350
:1039B00018001340084098421DD910231C48046881
:1039C0009C432300012491421CD9521A1949D2B2B6
:1039D000895C234300291CD004218B4351B2002968
:1039E0001CDB80218B430360002A19D14022134342
:1039F0000360042010BD10230D48046823430124F4
:103A00009142E2D8521A0B49D2B2895CA3430029F1
:103A1000E2D104210B4351B20029E2DA80221343A0
:103A200040229343E4E7C046554801204C4801201A
:103A30006C340020487D021010B5204B1978204BC3
:103A40001A780F2318001340084098421DD91023FC
:103A50001C4804689C432300012491421CD9521A3B
:103A60001949D2B2895C234300291CD004218B431D
:103A700051B200291CDB80218B430360002A19D13D
:103A8000402213430360042010BD10230D48046836
:103A9000234301249142E2D8521A0B49D2B2895CE5
:103AA000A3430029E2D104210B4351B20029E2DAF9
:103AB0008022134340229343E4E7C0465748012045
:103AC0004C4801206C340020487D021010B5204B7A
:103AD0001978204B1A780F23180013400840984299
:103AE0001DD910231C4804689C43230001249142E3
:103AF0001CD9521A1949D2B2895C234300291CD01F
:103B000004218B4351B200291CDB80218B430360CD
:103B1000002A19D1402213430360042010BD102352
:103B20000D480468234301249142E2D8521A0B49FC
:103B3000D2B2895CA3430029E2D104210B4351B2E4
:103B40000029E2DA8022134340229343E4E7C0468F
:103B50005B4801204C4801206C340020487D021055
:103B600010B5234B1A78234B12021B789B18224A5C
:103B70009BB2D15C214B1A780F2318000B401040E8
:103B800098421DD210231E4804689C432300012440
:103B90008A421CD2521A1B49D2B2895C23430029A3
:103BA0001CD004218B4351B200291CDB80218B43A4
:103BB0000360002A19D1402213430360072010BD7F
:103BC00010230F480468234301248A42E2D3521A87
:103BD0000C49D2B2895CA3430029E2D104210B43F2
:103BE00051B20029E2DA8022134340229343E4E7F2
:103BF000574801205B480120D44700204C48012051
:103C00006C340020487D0210224A10B51388591CDC
:103C10001180214AD15C214B1A780F2318001340E0
:103C2000084098421DD910231D4804689C43230076
:103C300001248A421CD2521A1A49D2B2895C234307
:103C400000291CD004218B4351B200291CDB8021A8
:103C50008B430360002A19D14022134303600720DD
:103C600010BD10230E480468234301248A42E2D386
:103C7000521A0C49D2B2895CA3430029E2D1042133
:103C80000B4351B20029E2DA8022134340229343CE
:103C9000E4E7C04644480120D44700204C480120B6
:103CA0006C340020487D02101C4B1D491A781D4BB6
:103CB00012021B781C489B189BB2CA5C0132D2B21C
:103CC000834200D8CA541949130715D11023086834
:103CD00003431748805C002816D00420834350B269
:103CE000002816DB802083430B60002A13D140227A
:103CF00013430A200B6070471023086898430300A1
:103D00000B48805C0028E8D10420034350B200280F
:103D1000E8DA8022134340229343EAE75748012020
:103D2000D44700205B480120FFFE00006C340020D7
:103D3000487D02101B4B1C491A781C4B12021B7841
:103D40001B489B189BB2CA5C013AD2B2834200D88E
:103D5000CA54D34317491B071FD0102308680343D5
:103D60001548805C00280ED00420834350B2002800
:103D70000EDB802083430B60002A0BD140221343CB
:103D80000A200B6070470420034350B20028F0DA89
:103D90008022134340229343F2E71023086898439C
:103DA0000300DDE757480120D44700205B4801208D
:103DB000FFFE00006C340020487D021030B50A4838
:103DC0000A4C0378D9090A1E08D001212568294325
:103DD0005B00134303702160042030BD012125687E
:103DE0008D432900F4E7C0464C4801206C34002084
:103DF000012110B5094A0A4813780468194208D00D
:103E00002143016080215B0849420B431370042069
:103E100010BD8C435B0804601370F8E74C48012028
:103E20006C34002070B50124002625000A490B4897
:103E30008E5702680B781540002E0ADBA2435B0008
:103E40000260DBB2002D01D00122134304200B706D
:103E500070BD2243F3E7C0464C4801206C3400207B
:103E6000012130B50D000A4C0A482268037815403C
:103E700019420AD00A4322605B08002D02D080223A
:103E8000524213430370042030BD8A43F3E7C04617
:103E90006C3400204C480120064A074B11781878F2
:103EA00019701070054B064A187811781070197047
:103EB0000420704753480120574801205B480120E7
:103EC0005548012010B5104B104A1B881049D05C92
:103ED0008B420BD90F49013308700D499BB2D05C5E
:103EE0008B420DD90C490870122010BD09490C787D
:103EF000D4540870013306499BB2D05C8B42F1D890
:103F000005490C78D454EEE746480120D4470020F8
:103F1000FFFE00005B480120574801200B490C4878
:103F20000B8810B55A1E92B2824203D80948047811
:103F300009488454023B064A9BB20B80934203D843
:103F4000064A1168044AD1540B2010BD464801208E
:103F5000FFFE00004C480120D44700206C340020B4
:103F60000B490C480B8810B55A1E92B2824203D8F6
:103F70000948047809488454023B064A9BB20B80E6
:103F8000934203D8064A1178044AD1540B2010BD3D
:103F900046480120FFFE00004E480120D447002083
:103FA000504801200B490C480B8810B55A1E92B29C
:103FB000824203D80948047809488454023B064ADF
:103FC0009BB20B80934203D8064A1178044AD1541D
:103FD0000B2010BD46480120FFFE00005348012081
:103FE000D4470020554801200B490C480B8810B5D8
:103FF0005A1E92B2824203D8094804780948845470
:10400000023B064A9BB20B80934203D8064A1178C2
:10401000044AD1540B2010BD46480120FFFE000089
:1040200057480120D44700205B48012010B52824C0
:10403000084809490388CA5CA243263C2243074C2E
:1040400022609A1C01339BB20280CA5C044B0A2096
:104050001A7010BD46480120D44700206C3400205F
:104060004C48012010B50749074A0B880748D45C23
:104070000470981C01339BB2D25C054B08801A7007
:104080000A2010BD46480120D44700205048012096
:104090004E48012010B50749074A0B880748D45CF1
:1040A0000470981C01339BB2D25C054B08801A70D7
:1040B0000A2010BD46480120D44700205548012061
:1040C0005348012010B50749074A0B880748D45CBC
:1040D0000470981C01339BB2D25C054B08801A70A7
:1040E0000A2010BD46480120D44700205B4801202B
:1040F00057480120054906480B88C25C01339BB232
:10410000C35C0A201B02D3180B807047444801206F
:10411000D4470020044B05201A78044B12021B7868
:104120009B18034A13807047574801205B480120C1
:1041300044480120F0B50F4D0F482B880F4EC25C4C
:104140009C1C01339BB2C35C0D4F1B02D2183388F9
:10415000A4B2591E89B292B2B94201D8270A475473
:10416000023B07499BB233808B4200D8C4541120D4
:104170002A80F0BD44480120D44700204648012051
:10418000FFFE000010B5074807490388CA5C9C1C65
:1041900001339BB2CB5C04801B02D318034A0A2074
:1041A000138010BD46480120D44700204448012018
:1041B000094A10B5138809489C1C1480084CC15C3E
:1041C0002468640605D501339BB2C35C1B02C91881
:1041D00011800A2010BDC04644480120D447002069
:1041E0006C340020094A10B5138809489C1C1480BF
:1041F000084CC15C2468640605D401339BB2C35CDF
:104200001B02C91811800A2010BDC0464448012075
:10421000D44700206C340020094A10B5138809489F
:104220009C1C1480084CC15C2468E40705D501334C
:104230009BB2C35C1B02C91811800A2010BDC04686
:1042400044480120D44700206C340020094A10B5AE
:10425000138809489C1C1480084CC15C2468E4073E
:1042600005D401339BB2C35C1B02C91811800A201C
:1042700010BDC04644480120D44700206C340020C3
:10428000094A10B5138809489C1C1480084CC15C6D
:104290002468640705D501339BB2C35C1B02C918AF
:1042A00011800A2010BDC04644480120D447002098
:1042B0006C340020094A10B5138809489C1C1480EE
:1042C000084CC15C2468640705D401339BB2C35C0D
:1042D0001B02C91811800A2010BDC04644480120A5
:1042E000D44700206C340020094A10B513880948CF
:1042F0009C1C1480084CC15C2468240605D501333D
:104300009BB2C35C1B02C91811800A2010BDC046B5
:1043100044480120D44700206C340020094A10B5DD
:10432000138809489C1C1480084CC15C246824062E
:1043300005D401339BB2C35C1B02C91811800A204B
:1043400010BDC04644480120D44700206C340020F2
:10435000F0B5C646144900B50B881448144C0668DD
:104360009A1C92B20B20E55C0A80760602D480BCCF
:10437000B846F0BD01339BB2E35C0E4F98463B88D4
:104380000D4E581E80B2B04201D8160A2654023B88
:1043900009489BB23B80834200D8E25443461E0248
:1043A000AD1911200D80E2E7444801206C34002053
:1043B000D447002046480120FFFE0000F0B5C64665
:1043C000144900B50B881448144C06689A1C92B224
:1043D0000B20E55C0A80760602D580BCB846F0BDAD
:1043E00001339BB2E35C0E4F98463B880D4E581E3E
:1043F00080B2B04201D8160A2654023B09489BB24B
:104400003B80834200D8E25443461E02AD1911207E
:104410000D80E2E7444801206C340020D44700209E
:1044200046480120FFFE0000F0B5C646144900B51D
:104430000B881448144C06689A1C92B20B20E55C59
:104440000A80F60702D480BCB846F0BD01339BB2A7
:10445000E35C0E4F98463B880D4E581E80B2B0422A
:1044600001D8160A2654023B09489BB23B8083427E
:1044700000D8E25443461E02AD1911200D80E2E738
:10448000444801206C340020D447002046480120D5
:10449000FFFE0000F0B5C646144900B50B8814486D
:1044A000144C06689A1C92B20B20E55C0A80F60751
:1044B00002D580BCB846F0BD01339BB2E35C0E4F21
:1044C00098463B880D4E581E80B2B04201D8160A5D
:1044D0002654023B09489BB23B80834200D8E254F9
:1044E00043461E02AD1911200D80E2E74448012029
:1044F0006C340020D447002046480120FFFE000015
:10450000F0B5C646144900B50B881448144C06682B
:104510009A1C92B20B20E55C0A80760702D480BC1C
:10452000B846F0BD01339BB2E35C0E4F98463B8822
:104530000D4E581E80B2B04201D8160A2654023BD6
:1045400009489BB23B80834200D8E25443461E0296
:10455000AD1911200D80E2E7444801206C340020A1
:10456000D447002046480120FFFE0000F0B5C646B3
:10457000144900B50B881448144C06689A1C92B272
:104580000B20E55C0A80760702D580BCB846F0BDFA
:1045900001339BB2E35C0E4F98463B880D4E581E8C
:1045A00080B2B04201D8160A2654023B09489BB299
:1045B0003B80834200D8E25443461E02AD191120CD
:1045C0000D80E2E7444801206C340020D4470020ED
:1045D00046480120FFFE0000F0B5C646144900B56C
:1045E0000B881448144C06689A1C92B20B20E55CA8
:1045F0000A80360602D480BCB846F0BD01339BB2B7
:10460000E35C0E4F98463B880D4E581E80B2B04278
:1046100001D8160A2654023B09489BB23B808342CC
:1046200000D8E25443461E02AD1911200D80E2E786
:10463000444801206C340020D44700204648012023
:10464000FFFE0000F0B5C646144900B50B881448BB
:10465000144C06689A1C92B20B20E55C0A80360660
:1046600002D580BCB846F0BD01339BB2E35C0E4F6F
:1046700098463B880D4E581E80B2B04201D8160AAB
:104680002654023B09489BB23B80834200D8E25447
:1046900043461E02AD1911200D80E2E74448012077
:1046A0006C340020D447002046480120FFFE000063
:1046B0000C4870B503880C495A1E0C4D92B20C88F8
:1046C000AA4202D80A4E250AB554023B074A9BB2B9
:1046D0000380934201D8064AD45400230B200B8058
:1046E00070BDC0464648012044480120FFFE00003E
:1046F000D44700200C4870B503880C495A1E0C4D55
:1047000092B20C88AA4202D80A4E250AB554023B3E
:10471000074A9BB20380934201D8064AD454082327
:104720000B200B8070BDC046464801204448012044
:10473000FFFE0000D44700200C4870B503880C49E8
:104740005A1E0C4D92B20C88AA4202D80A4E250A73
:10475000B554023B074A9BB20380934201D8064AF4
:10476000D45410230B200B8070BDC0464648012056
:1047700044480120FFFE0000D44700200C4870B5DB
:1047800003880C495A1E0C4D92B20C88AA4202D8DA
:104790000A4E250AB554023B074A9BB20380934256
:1047A00001D8064AD45418230B200B8070BDC04694
:1047B0004648012044480120FFFE0000D447002065
:1047C0000C4870B503880C495A1E0C4D92B20C88E7
:1047D000AA4202D80A4E250AB554023B074A9BB2A8
:1047E0000380934201D8064AD45420230B200B8027
:1047F00070BDC0464648012044480120FFFE00002D
:10480000D44700200C4870B503880C495A1E0C4D43
:1048100092B20C88AA4202D80A4E250AB554023B2D
:10482000074A9BB20380934201D8064AD4542823F6
:104830000B200B8070BDC046464801204448012033
:10484000FFFE0000D44700200C4870B503880C49D7
:104850005A1E0C4D92B20C88AA4202D80A4E250A62
:10486000B554023B074A9BB20380934201D8064AE3
:10487000D45430230B200B8070BDC0464648012025
:1048800044480120FFFE0000D44700200C4870B5CA
:1048900003880C495A1E0C4D92B20C88AA4202D8C9
:1048A0000A4E250AB554023B074A9BB20380934245
:1048B00001D8064AD45438230B200B8070BDC04663
:1048C0004648012044480120FFFE0000D447002054
:1048D000064B04201B68002B06D00622044B002048
:1048E0001A600022034B1A707047C0462848012006
:1048F000243B002066480120064A10B51388591C45
:104900001180054AD05C0100FCF74EF8034B18708B
:104910000A2010BD44480120D44700204C48012003
:10492000064A10B51388591C1180054AD05C054B06
:1049300001001A78FCF762F80A2010BD44480120F3
:10494000D44700204C480120F8B5FBF7C9FD154BB2
:1049500004001B780D00002B1ED0134E3368002B73
:104960000AD1124F05E0012011F062FC3368002BE0
:1049700002D13B78012BF6D000220D4B1A60FBF7D9
:10498000AFFD0C4B1E685F68A4197D41241A8D4150
:1049900007201C605D60F8BD0121074A1160034AD1
:1049A0001370E9E75A480120B84700206648012003
:1049B000E43A0020282C0020243B0020064A1378EB
:1049C0000133DBB21370002B03D1044A1378013397
:1049D000137005207047C046504801204E48012002
:1049E000064A13780133DBB21370002B03D1044A5B
:1049F00013780133137005207047C04655480120D5
:104A000053480120064A13780133DBB21370002BA0
:104A100003D1044A13780133137005207047C04650
:104A20005B48012057480120064A1378013BDBB25E
:104A30001370FF2B03D1044A1378013B1370052038
:104A40007047C046504801204E480120064A13785E
:104A5000013BDBB21370FF2B03D1044A1378013BF7
:104A6000137005207047C046554801205348012067
:104A7000064A1378013BDBB21370FF2B03D1044AC3
:104A80001378013B137005207047C0465B48012036
:104A900057480120164B17491A78013AD2B21A70BA
:104AA000D3431B071FD01023086803431248805CC0
:104AB00000280ED00420834350B200280EDB802053
:104AC00083430B60002A0BD14022134305200B6067
:104AD00070470420034350B20028F0DA80221343C9
:104AE00040229343F2E71023086898430300DDE770
:104AF0005B4801206C340020487D02100A4B0520E1
:104B00001B6810B51B060DD40848094903889C1C76
:104B100004800B20CA5C01339BB2CB5C1B02D31810
:104B2000044A138010BDC0466C3400204648012062
:104B3000D4470020444801200B4B1B68002B0BD1AD
:104B40000A490B480B88C25C01339BB2C35C0A2044
:104B50001B02D3180B8070470622064B00201A60F8
:104B60000022054B1A70F6E728480120444801202E
:104B7000D4470020243B0020664801200D4B10B58F
:104B80001B68002B0ED10C480C4903889C1C048028
:104B90000A20CA5C01339BB2CB5C1B02D318084AC3
:104BA000138010BD0622074B00201A600022064B1E
:104BB0001A70F6E72848012046480120D447002013
:104BC00044480120243B002066480120052070470E
:104BD0000520704705207047052070470520704765
:104BE00005207047174B18491A780132D2B21A7053
:104BF000130715D11023086803431448805C00286C
:104C000016D00420834350B2002816DB8020834353
:104C10000B60002A13D14022134305200B6070471C
:104C200010230868984303000848805C0028E8D1F6
:104C30000420034350B20028E8DA802213434022C4
:104C40009343EAE74C4801206C340020487D021071
:104C5000174B18491A780132D2B21A70130715D1BE
:104C60001023086803431448805C002816D00420F1
:104C7000834350B2002816DB802083430B60002A58
:104C800013D14022134305200B607047102308689E
:104C9000984303000848805C0028E8D104200343BF
:104CA00050B20028E8DA8022134340229343EAE717
:104CB0004E4801206C340020487D0210174B1849E3
:104CC0001A780132D2B21A70130715D1102308686E
:104CD00003431448805C002816D00420834350B25C
:104CE000002816DB802083430B60002A13D140226A
:104CF000134305200B607047102308689843030096
:104D00000848805C0028E8D10420034350B2002802
:104D1000E8DA8022134340229343EAE75048012017
:104D20006C340020487D0210174B18491A78013264
:104D3000D2B21A70130715D1102308680343144820
:104D4000805C002816D00420834350B2002816DB74
:104D5000802083430B60002A13D140221343052097
:104D60000B60704710230868984303000848805C74
:104D70000028E8D10420034350B20028E8DA80225A
:104D8000134340229343EAE7534801206C34002048
:104D9000487D0210174B18491A780132D2B21A70A6
:104DA000130715D11023086803431448805C0028BA
:104DB00016D00420834350B2002816DB80208343A2
:104DC0000B60002A13D14022134305200B6070476B
:104DD00010230868984303000848805C0028E8D145
:104DE0000420034350B20028E8DA80221343402213
:104DF0009343EAE7554801206C340020487D0210B7
:104E0000174B18491A780132D2B21A70130715D10C
:104E10001023086803431448805C002816D004203F
:104E2000834350B2002816DB802083430B60002AA6
:104E300013D14022134305200B60704710230868EC
:104E4000984303000848805C0028E8D1042003430D
:104E500050B20028E8DA8022134340229343EAE765
:104E6000574801206C340020487D0210174B184928
:104E70001A780132D2B21A70130715D110230868BC
:104E800003431448805C002816D00420834350B2AA
:104E9000002816DB802083430B60002A13D14022B8
:104EA000134305200B6070471023086898430300E4
:104EB0000848805C0028E8D10420034350B2002851
:104EC000E8DA8022134340229343EAE75B4801205B
:104ED0006C340020487D0210164B17491A78013AAD
:104EE000D2B21A70D3431B071FD0102308680343A4
:104EF0001248805C00280ED00420834350B2002862
:104F00000EDB802083430B60002A0BD14022134329
:104F100005200B6070470420034350B20028F0DAEC
:104F20008022134340229343F2E7102308689843FA
:104F30000300DDE74C4801206C340020487D02105E
:104F4000164B17491A78013AD2B21A70D3431B078D
:104F50001FD01023086803431248805C00280ED03D
:104F60000420834350B200280EDB802083430B6073
:104F7000002A0BD14022134305200B607047042008
:104F8000034350B20028F0DA8022134340229343B7
:104F9000F2E71023086898430300DDE74E4801203C
:104FA0006C340020487D0210164B17491A78013ADC
:104FB000D2B21A70D3431B071FD0102308680343D3
:104FC0001248805C00280ED00420834350B2002891
:104FD0000EDB802083430B60002A0BD14022134359
:104FE00005200B6070470420034350B20028F0DA1C
:104FF0008022134340229343F2E71023086898432A
:105000000300DDE7504801206C340020487D021089
:10501000164B17491A78013AD2B21A70D3431B07BC
:105020001FD01023086803431248805C00280ED06C
:105030000420834350B200280EDB802083430B60A2
:10504000002A0BD14022134305200B607047042037
:10505000034350B20028F0DA8022134340229343E6
:10506000F2E71023086898430300DDE75348012066
:105070006C340020487D0210164B17491A78013A0B
:10508000D2B21A70D3431B071FD010230868034302
:105090001248805C00280ED00420834350B20028C0
:1050A0000EDB802083430B60002A0BD14022134388
:1050B00005200B6070470420034350B20028F0DA4B
:1050C0008022134340229343F2E710230868984359
:1050D0000300DDE7554801206C340020487D0210B4
:1050E000164B17491A78013AD2B21A70D3431B07EC
:1050F0001FD01023086803431248805C00280ED09C
:105100000420834350B200280EDB802083430B60D1
:10511000002A0BD14022134305200B607047042066
:10512000034350B20028F0DA802213434022934315
:10513000F2E71023086898430300DDE75748012091
:105140006C340020487D0210154BF0B51B68002B15
:1051500007D00622134B00201A600022124B1A704F
:10516000F0BD124D12482B88124EC25C9C1C0133BC
:105170009BB2C35C104F1B02D2183388A4B2591ED5
:1051800089B292B2B94201D8270A4754023B0A4970
:105190009BB233808B4200D8C45411202A80DFE7B1
:1051A00028480120243B0020664801204448012073
:1051B000D447002046480120FFFE00000A4B05208E
:1051C0001B6810B55B060DD50848094903889C1C6F
:1051D00004800B20CA5C01339BB2CB5C1B02D3184A
:1051E000044A138010BDC0466C340020464801209C
:1051F000D4470020444801200A4B05201B6810B505
:105200005B060DD40848094903889C1C04800B20C8
:10521000CA5C01339BB2CB5C1B02D318044A1380D7
:1052200010BDC0466C34002046480120D447002001
:10523000444801200A4B05201B6810B5DB070DD53B
:105240000848094903889C1C04800B20CA5C013370
:105250009BB2CB5C1B02D318044A138010BDC0461E
:105260006C34002046480120D447002044480120E7
:105270000A4B05201B6810B5DB070DD40848094907
:1052800003889C1C04800B20CA5C01339BB2CB5C5E
:105290001B02D318044A138010BDC0466C34002092
:1052A00046480120D4470020444801200A4B0520ED
:1052B0001B6810B55B070DD50848094903889C1C7D
:1052C00004800B20CA5C01339BB2CB5C1B02D31859
:1052D000044A138010BDC0466C34002046480120AB
:1052E000D4470020444801200A4B05201B6810B514
:1052F0005B070DD40848094903889C1C04800B20D7
:10530000CA5C01339BB2CB5C1B02D318044A1380E6
:1053100010BDC0466C34002046480120D447002010
:10532000444801200A4B05201B6810B51B060DD50B
:105330000848094903889C1C04800B20CA5C01337F
:105340009BB2CB5C1B02D318044A138010BDC0462D
:105350006C34002046480120D447002044480120F6
:10536000F0B5DE46574645464E46E0B5C44B8BB0D9
:105370001B68C44D0293029A28686968D317801885
:10538000594102900391FBF7ABF8BF4BBF4F9846D2
:10539000BF4BC04E9A46C04B05909B46434618688B
:1053A000BE4982001218930002225446CA50BB4ADA
:1053B000246894466344A4463988B94A998012788F
:1053C000013012026244DA80B64A1478B64A2402E6
:1053D000127812191A81B54A1478B54A2402127843
:1053E00012195A81B34A1478B34A24021278121956
:1053F0009A81B24A12885A8243461860642805D1BD
:105400000123AF4A1360002342461360AD4B1B8853
:105410008B4200D1A6E0AC4B1B78002B2BD0AB4CC1
:105420002278002A00D1AEE0A94B99464B461B6872
:10543000002B18D0012098472A686B6812184B413E
:105440002A606B60A34B1A68002A0CD0A24B9946C5
:10545000D31713F04BF94B461A685B688018594113
:105460004B461860596000232370974B1B78032B21
:1054700000D1CEE039883368002B2ED0974B1A78B4
:10548000032A2AD1964A1268002A26D11A708B4B19
:1054900094481B885C1EA4B29946844205D8924861
:1054A0000B0A84461800634618554B468348023B56
:1054B0009BB203808B48834201D88B48C1548B4BED
:1054C00099461B68591C00D1ADE0C73B382B00D969
:1054D000A2E087499B00CB589F464B1C9BB29C4641
:1054E0000A0000217E4B196063463B807E4B9B5C2B
:1054F000804A9B009B589847C317009001932868E7
:105500006968009A019B12184B4172492A606B60CE
:10551000096800290AD002980399994206D801D156
:10552000904203D8744B1B68002B53D05A4B1A6817
:10553000002A0BD028686968704A10605160704A70
:1055400039881288914201D100221A606D4B1B7874
:10555000012B00D122E70BB0F0BCBB46B246A946F6
:10556000A046F0BD5B461B68002B00D053E75A46AF
:105570006248013313602A686B68026043606248C6
:105580000260436047E7032B00D174E7504B994614
:105590001B68002B00D16EE7002098472A686B68D3
:1055A00012184B412A606B604A4B1A68002A0CD0D3
:1055B000D31713F09BF8484B1A685B688018594161
:1055C00008920993444B186059602378002B00D14E
:1055D00050E72BE7FAF784FF059BC01A4B4B421E9E
:1055E0009A4210D929686A68254B1B680693DB1715
:1055F0000793069B079C5B18544102930394FAF7A8
:105600006FFF059092E7424B181AC11710F0FEFD8C
:10561000E8E7FBF741FA2DE70A223E4B1A60002328
:10562000384A137097E7392338229C462B686C68F8
:105630000B200021C01861412860696000214B46A1
:105640003160013919604CE7312330229C46EDE787
:10565000212320229C46E9E7292328229C46E5E7CE
:10566000112310229C46E1E7192318229C46DDE70E
:10567000092308229C46D9E701239C46D6E7C04669
:1056800024480120202C0020DC3B0020444801203D
:105690006C340020B847002010480120E43B002073
:1056A0004C4801204E480120504801205348012019
:1056B00055480120574801205B48012046480120F9
:1056C000D83B00208E15002062480120634801204D
:1056D000C03B0020CC3B0020282C00205A48012051
:1056E000C4470020FFFE0000D4470020881500209A
:1056F000487E02102C7F0210283B00200834002036
:105700008C15002066480120103400200E27000070
:1057100010270000243B0020042070471223044A75
:105720000420116899430B0001210B43136070475B
:105730006C3400200121084A1368194207D08B43BA
:105740000F310B4302218B4304201360704710205C
:1057500083430B43F6E7C0466C340020054A04201F
:105760001378DB4313701223034A11680B43136051
:105770007047C0464C4801206C340020F0B5C64646
:105780000F2100B52A4C2B482278036811400929C3
:1057900004D810252E001E401D4245D00626662541
:1057A000B046992A02D801271F423AD001273B432D
:1057B0009F0713D5B14231DB10218B43521BD2B26C
:1057C00040212270002A14D10B4380218B431A49B7
:1057D0008A5C002A18D10422134317E089190F2983
:1057E00019DC10218B435219D2B240212270002AB9
:1057F000EAD08B4351B203600029E6DA80210B43E3
:105800000D498A5C002AE6D00422934303600420F9
:1058100080BCB846F0BD10210B43E4E710210B43D8
:10582000CCE74546BB43C3E700276025B846B8E749
:105830004C4801206C340020487D02100322034BA9
:1058400004201A70024B023A1A6070475A4801202D
:10585000C44700200022024B04201A707047C04643
:105860005A480120044A07201388591C1180034A12
:10587000D25C034B1A70704744480120D447002083
:105880004C480120044A07201388591C1180034A00
:10589000D25C034B1A70704744480120D447002063
:1058A0004E480120044A07201388591C1180034ADE
:1058B000D25C034B1A70704744480120D447002043
:1058C00050480120044A07201388591C1180034ABC
:1058D000D25C034B1A70704744480120D447002023
:1058E00053480120044A07201388591C1180034A99
:1058F000D25C034B1A70704744480120D447002003
:1059000055480120044A07201388591C1180034A76
:10591000D25C034B1A70704744480120D4470020E2
:1059200057480120044A07201388591C1180034A54
:10593000D25C034B1A70704744480120D4470020C2
:105940005B480120064B07201A78064B12021B7891
:105950009B18054A9BB2D25C044B1A707047C04634
:105960004E48012050480120D44700204C480120D7
:10597000064B07201A78064B12021B789B18054A23
:105980009BB2D25C044B1A707047C046534801204A
:1059900055480120D44700204C48012010B5084844
:1059A00008490388CA5C9C1C01339BB2CB5C048011
:1059B0001B02D3189BB2CA5C034B0D201A7010BD9A
:1059C00044480120D44700204C480120074B1A7856
:1059D000074B12021B789B18064A9BB2934203D8CE
:1059E000054A1178054AD154072070474E480120D6
:1059F00050480120FFFE00004C480120D447002001
:105A0000074B1A78074B12021B789B18064A9BB269
:105A1000934203D8054A1178054AD15407207047AC
:105A20005348012055480120FFFE00004C4801204A
:105A3000D447002010B50A480A490388CA5C9C1C58
:105A400001339BB2CB5C04801B02D318064A9BB285
:105A5000934202D8054A1278CA540D2010BDC046A0
:105A600044480120D4470020FFFE00004C4801209C
:105A7000074B1A78074B12021B789B18064A9BB2F9
:105A8000934203D8054A1178054AD154072070473C
:105A9000574801205B480120FFFE00004C480120D0
:105AA000D4470020074B1A78074B12021B789B182B
:105AB000064A9BB2934203D8054A1178054AD1544D
:105AC00007207047574801205B480120FFFE000077
:105AD0004E480120D4470020074B1A78074B12028A
